:020000040000fa
:080000000002040000000000f2
:020000040000fa
:04000800a80200004a
:020000040000fa
:04000c00a802000046
:020000040000fa
:04001000a802000042
:020000040000fa
:04001400a80200003e
:020000040000fa
:04001800a80200003a
:020000040000fa
:04001c00a802000036
:020000040000fa
:04002000a802000032
:020000040000fa
:04002400a80200002e
:020000040000fa
:04002800a80200002a
:020000040000fa
:04002c00a802000026
:020000040000fa
:04003000a802000022
:020000040000fa
:04003400a80200001e
:020000040000fa
:04003800a80200001a
:020000040000fa
:04003c00a802000016
:020000040000fa
:04004000a802000012
:020000040000fa
:04004400a80200000e
:020000040000fa
:04004800a80200000a
:020000040000fa
:04004c00a802000006
:020000040000fa
:04005000a802000002
:020000040000fa
:04005400a8020000fe
:020000040000fa
:04005800a8020000fa
:020000040000fa
:04005c00a8020000f6
:020000040000fa
:04006000a8020000f2
:020000040000fa
:04006400a8020000ee
:020000040000fa
:04006800a8020000ea
:020000040000fa
:04006c00a8020000e6
:020000040000fa
:04007000a8020000e2
:020000040000fa
:04007400a8020000de
:020000040000fa
:04007800a8020000da
:020000040000fa
:04007c00a8020000d6
:020000040000fa
:04008000a8020000d2
:020000040000fa
:04008400a8020000ce
:020000040000fa
:04008800a8020000ca
:020000040000fa
:04008c00a8020000c6
:020000040000fa
:04009000a8020000c2
:020000040000fa
:04009400a8020000be
:020000040000fa
:04009800a8020000ba
:020000040000fa
:04009c00a8020000b6
:020000040000fa
:0400a000a8020000b2
:020000040000fa
:0400a400a8020000ae
:020000040000fa
:0400a800a8020000aa
:020000040000fa
:0400ac00a8020000a6
:020000040000fa
:0400b000a8020000a2
:020000040000fa
:0400b400a80200009e
:020000040000fa
:0400b800a80200009a
:020000040000fa
:0400bc00a802000096
:020000040000fa
:0400c000a802000092
:020000040000fa
:0400c400a80200008e
:020000040000fa
:0400c800a80200008a
:020000040000fa
:0400cc00a802000086
:020000040000fa
:0400d000a802000082
:020000040000fa
:0400d400a80200007e
:020000040000fa
:0400d800a80200007a
:020000040000fa
:0400dc00a802000076
:020000040000fa
:0400e000a802000072
:020000040000fa
:0400e400a80200006e
:020000040000fa
:0400e800a80200006a
:020000040000fa
:0400ec00a802000066
:020000040000fa
:0400f000a802000062
:020000040000fa
:0400f400a80200005e
:020000040000fa
:0400f800a80200005a
:020000040000fa
:0400fc00a802000056
:020000040000fa
:04010000a802000051
:020000040000fa
:04010400a80200004d
:020000040000fa
:04010800a802000049
:020000040000fa
:04010c00a802000045
:020000040000fa
:04011000a802000041
:020000040000fa
:04011400a80200003d
:020000040000fa
:04011800a802000039
:020000040000fa
:04011c00a802000035
:020000040000fa
:04012000a802000031
:020000040000fa
:04012400a80200002d
:020000040000fa
:04012800a802000029
:020000040000fa
:04012c00a802000025
:020000040000fa
:04013000a802000021
:020000040000fa
:04013400a80200001d
:020000040000fa
:04013800a802000019
:020000040000fa
:04013c00a802000015
:020000040000fa
:04014000a802000011
:020000040000fa
:04014400a80200000d
:020000040000fa
:04014800a802000009
:020000040000fa
:04014c00a802000005
:020000040000fa
:04015000a802000001
:020000040000fa
:04020800a802000048
:020000040000fa
:04020c00a802000044
:020000040000fa
:04021000a802000040
:020000040000fa
:04021400a80200003c
:020000040000fa
:04021800a802000038
:020000040000fa
:04021c00a802000034
:020000040000fa
:04022000a802000030
:020000040000fa
:04022400a80200002c
:020000040000fa
:04022800a802000028
:020000040000fa
:04022c00a802000024
:020000040000fa
:04023000a802000020
:020000040000fa
:04023400a80200001c
:020000040000fa
:04023800a802000018
:020000040000fa
:04023c00a802000014
:020000040000fa
:04024000a802000010
:020000040000fa
:04024400a80200000c
:020000040000fa
:04024800a802000008
:020000040000fa
:04024c00a802000004
:020000040000fa
:04025000a802000000
:020000040000fa
:04025400a8020000fc
:020000040000fa
:04025800a8020000f8
:020000040000fa
:04025c00a8020000f4
:020000040000fa
:04026000a8020000f0
:020000040000fa
:04026400a8020000ec
:020000040000fa
:04026800a8020000e8
:020000040000fa
:04026c00a8020000e4
:020000040000fa
:04027000a8020000e0
:020000040000fa
:04027400a8020000dc
:020000040000fa
:04027800a8020000d8
:020000040000fa
:04027c00a8020000d4
:020000040000fa
:04028000a8020000d0
:020000040000fa
:04028400a8020000cc
:020000040000fa
:04028800a8020000c8
:020000040000fa
:04028c00a8020000c4
:020000040000fa
:04029000a8020000c0
:020000040000fa
:04029400a8020000bc
:020000040000fa
:04029800a8020000b8
:020000040000fa
:04029c00a8020000b4
:020000040000fa
:0402a000a8020000b0
:020000040000fa
:0402a400a8020000ac
:020000040000fa
:0402a800a8020000a8
:020000040000fa
:0402ac00a8020000a4
:020000040000fa
:0402b000a8020000a0
:020000040000fa
:0402b400a80200009c
:020000040000fa
:0402b800a802000098
:020000040000fa
:0402bc00a802000094
:020000040000fa
:0402c000a802000090
:020000040000fa
:0402c400a80200008c
:020000040000fa
:0402c800a802000088
:020000040000fa
:0402cc00a802000084
:020000040000fa
:0402d000a802000080
:020000040000fa
:0402d400a80200007c
:020000040000fa
:0402d800a802000078
:020000040000fa
:0402dc00a802000074
:020000040000fa
:0402e000a802000070
:020000040000fa
:0402e400a80200006c
:020000040000fa
:0402e800a802000068
:020000040000fa
:0402ec00a802000064
:020000040000fa
:0402f000a802000060
:020000040000fa
:0402f400a80200005c
:020000040000fa
:0402f800a802000058
:020000040000fa
:0402fc00a802000054
:020000040000fa
:04030000a80200004f
:020000040000fa
:04030400a80200004b
:020000040000fa
:04030800a802000047
:020000040000fa
:04030c00a802000043
:020000040000fa
:04031000a80200003f
:020000040000fa
:04031400a80200003b
:020000040000fa
:04031800a802000037
:020000040000fa
:04031c00a802000033
:020000040000fa
:04032000a80200002f
:020000040000fa
:04032400a80200002b
:020000040000fa
:04032800a802000027
:020000040000fa
:04032c00a802000023
:020000040000fa
:04033000a80200001f
:020000040000fa
:04033400a80200001b
:020000040000fa
:04033800a802000017
:020000040000fa
:04033c00a802000013
:020000040000fa
:04034000a80200000f
:020000040000fa
:04034400a80200000b
:020000040000fa
:04034800a802000007
:020000040000fa
:04034c00a802000003
:020000040000fa
:04035000a8020000ff
:020000040000fa
:10040000efa020000ebf20000e01880000000000b9
:10041000000020000000e000020032000001200087
:10042000200288000c000700e0622000010020008c
:1004300011000700000020000000e0000200320070
:100440000000020000000000f602020000000000b0
:100450000040da000000fe004440a9000000200037
:100460000000e0000300320000002000a00188002e
:100470004440a80000000600910188008000780038
:100480000000eb0015003700e280400032a0b4000d
:100490009101ba00e280400032a0b4009102ba009b
:1004a000e280400032a0b4000002eb00472bde00e7
:1004b000f507b200602ce10004003a000059eb009f
:1004c0008301e900fdff3e00040037006128e100e0
:1004d000010032000082eb000b00070011c3ba00dc
:1004e0001101ba000604e00003003a000200e00037
:1004f000e5ff3a0000000600f607b200960188000a
:1005000082007800f5ff37003159ba008301e90015
:100510000c0032002159ba008301e90008003200c2
:100520000400e00003003a00e280400032a0b40082
:10053000f5ff370011d9ba008301e900faff3a004c
:100540008100e800e180400032a0b4000000060015
:100550000040da000000fe00839f68000100e00018
:1005600002003d0060001000e08018000300e00081
:1005700002003d0060011100e08119000500070044
:100580004f00e00002003b0060001000e080180017
:10059000000006006022b800060220000000d00023
:1005a0008180d2000482d2008582d2000000a000a7
:1005b0000202520083825a0003003100020242000c
:1005c00083824a000000a1000603e900f3ff3a001d
:1005d0000000060080007800010178003104e0008e
:0c05e000fdff3a00000051000000060082
:020000040000fa
:1005ec000400fa002800070032010700025822001c
:1005fc0010ad2b00810920003e01070034000700dc
:10060c0000802000f0ff07008000780000802000b0
:10061c005801070010002000100798000000eb00a4
:10062c00000f7800130037001e0090008040780007
:10063c001e0090004800de00004078000141780068
:10064c008040780000c5b3009e0007000ceab7009c
:10065c000ccabf00590107001e0090000000e80002
:10066c0010079800c06f2800110020002e02070010
:10067c001e0fe800100320009e007800808f5000b1
:10068c00e9ff3400ffff37000000fa00213a800038
:10069c0000fe2f00008060000010a000203a8800af
:1006ac00313a800000e02f0080806000500520006f
:1006bc0001007000303a8800203a80000060a000f1
:1006cc000070a000203a88000080fa0000000600ac
:1006dc000000fa00700120002010880007e2a90039
:1006ec000722a8000742a9000782a80007e2a80079
:1006fc009620a9008620a9000080fa0000000600c0
:10070c000000fa0006a2a9000682a8000000000062
:10071c0030108000700060000000e000fcff3a0028
:10072c000080fa00000006000000fa0006a2a800f3
:10073c000682a800000000003010800070006000ed
:10074c000000e000fcff3a000080fa000000060008
:10075c000000fa000662a9000642a8000000000092
:10076c0030108000640060000000e000fcff3a00e4
:10077c000080fa00000006000000fa0006a2a900a2
:10078c000602a8000000000030108000610060002c
:10079c000000e000fcff3a000080fa0000000600b8
:1007ac000000fa000622a8000000000030108000b3
:1007bc00620060000000e000fcff3a0006a2a90005
:1007cc000802a9000080fa00000006000000fa00f0
:1007dc000000000041108000000028000080600034
:1007ec000000e000fbff3a000080fa000000060069
:1007fc000000fa00000000004110800000002400fe
:10080c00008060000000e000fbff3a000080fa006e
:10081c00000006000200fa00004f78001e80fb006a
:10082c001010880000000000401080006100600083
:10083c000000e000fcff3a000080fa000000060017
:10084c000000fa000662a800000000000000000092
:10085c0040108000620060000000e000fcff3200ed
:10086c000080fa00000006000400fa00004f780037
:10087c00114798002247980033479800beff0700a5
:10088c001e00fb000000400000407800e1ff070064
:10089c00d7ff07001e409000deff0700d4ff0700c3
:1008ac002e409000dbff0700d1ff07003e40900078
:1008bc00d8ff0700ceff0700a5ff07000080fa0055
:1008cc00000006000600fa00204798003147980007
:1008dc0042479800a8ff07002e4090000000fb0044
:1008ec000000400000407800caff0700c0ff07006e
:1008fc003e409000c7ff0700bdff07004e40900030
:10090c00c4ff0700baff0700a5ff07002e409000a8
:10091c000000fb0000004000004078000004a00034
:10092c00bcff0700b2ff0700c5ff07007eff0700f2
:10093c0087ff070000108000004f78001e407800f1
:10094c000080fa00000006000a00fa002047980018
:10095c0031479800424798003307980044079800a5
:10096c0085ff07002e4090000000fb0000004000b7
:10097c0000407800a7ff07009dff07003e40900055
:10098c00a4ff07009aff07004e409000a1ff07004c
:10099c0097ff07000000eb00000f78000a003700fb
:1009ac001e007800be0090000080400010407800cf
:1009bc0098ff07008eff07009071220001002000b5
:1009cc00590107001e0fe8004e0090009e007800b1
:1009dc00808f5000f2ff35005dff07000080fa00a9
:1009ec00000006000a00fa002047980031479800e2
:1009fc004247980033079800440798005eff0700b1
:100a0c002e4090000000fb000000400000407800e9
:100a1c0080ff070076ff07003e4090007dff070037
:100a2c0073ff07004e4090007aff070070ff07002d
:100a3c005bff07002e4090000000fb000000400010
:100a4c00004078000004a00072ff070068ff070058
:100a5c000000eb00000f78000900370078ff07005a
:100a6c001e007800be009000008040000110800045
:100a7c00814078000148780021ff07001e0fe80034
:100a8c004e0090009e007800808f5000f3ff3500e0
:100a9c001e007800be009000008040008040eb00fb
:100aac000148780020ff070029ff07000080fa00aa
:100abc00000006000000fa00c9c2a800c9e2a900a3
:100acc002135800000fe2f0000806000e000b300a4
:100adc002035880071368000f00f2e008080600079
:100aec000030200001007000703688000080fa0091
:100afc00000006000600fa00008fbe0022079800d6
:100b0c002022ef002222ef001e00be00e00f50005a
:100b1c00e08f580002003d006f004000e08048006c
:100b2c004c09dd004400de0000007100c488de00ca
:100b3c000002be002e009000cf80de000001be003f
:100b4c000400be0081fe0700000078000000e900f0
:100b5c004011880021e2a8002342a8008560a9006a
:100b6c008580a9009580a9009560a9000080fa00f5
:100b7c00000006000600fa001007980021079800f4
:100b8c000000eb00000f7800060037001e00780014
:100b9c009e00900000804000104078000700070085
:100bac001e0fe8002e0090009e007800808f5000f1
:100bbc00f6ff35000080fa00000006000200fa0083
:100bcc00004f780000000000111180000020200070
:100bdc00008060000000e000fbff3a001e80fb007c
:100bec00201188000000000011118000001020006e
:100bfc00008060000000e000fbff32000080fa0083
:100c0c00000006000000fa00000000002104800033
:100c1c0000802000008060000000e000fbff32003c
:100c2c008560a90010118000620060000000e000e7
:100c3c00030032002222a9000040eb000200370022
:100c4c0030118000004078000080fa00000006009f
:020000040000fa
:100c5c000c0a000002000000000000000008000068
:100c6c000c020000020000006573630072657600e0
:100c7c00656e64006f2e2e002e0d0a00006c650050
:100c8c006e646f002e2e2e000a0d00003c6874005e
:100c9c006d6c3e003c68650061643e003c7469000c
:100cac00746c65003e6953006f20530065747500c9
:100cbc00703c2f00746974006c653e003c737400ca
:100ccc00796c65003e696e00707574007b77690005
:100cdc00647468003a20320035307000783b6d0047
:100cec0061726700696e3a003570780020303b0005
:100cfc0064697300706c6100793a62006c6f630018
:100d0c006b3b7d003c2f730074796c00653e3c009e
:100d1c002f68650061643e003c626f0064793e00a0
:100d2c003c6831003e436f006e6669006775720067
:100d3c0061722000546f6d00616461003c2f68008b
:100d4c00313e3c00666f72006d206d00657468006a
:100d5c006f643d0027504f00535427003e4e6f00e8
:100d6c006d6520006461200072656400653a2000a6
:100d7c003c696e00707574002074790070653d00dc
:100d8c002774650078742700206e61006d653d0046
:100d9c002773730069642700206d6100786c65000f
:100dac006e677400683d2700333227003e536500a0
:100dbc006e686100206461002072650064653a0011
:100dcc00203c69006e7075007420740079706500a9
:100ddc003d27700061737300776f720064272000e9
:100dec006e616d00653d27007061730073272000f4
:100dfc006d6178006c656e00677468003d27330088
:100e0c0032272000726571007569720065643e00be
:100e1c0049502000646f20005365720076696400ad
:100e2c006f723a00203c69006e707500742074007b
:100e3c00797065003d2774006578740027206e007a
:100e4c00616d65003d27690070736500727627003f
:100e5c00207661006c7565003d27310039322e001b
:100e6c00313638002e302e0031273e003c696e00a2
:100e7c00707574002074790070653d0027686900f6
:100e8c00646465006e2720006e616d00653d27006f
:100e9c0079273e003c696e007075740020747900ef
:100eac0070653d0027737500626d69007427200022
:100ebc0076616c0075653d0027456e0076696100b2
:100ecc0072273e003c2f66006f726d003e3c68003e
:100edc00363e2a004f206300617261006374650026
:100eec0072652000273d2700202665006163750090
:100efc0074653b00207072006f69620069646f005a
:100f0c00213c2f0068353e003c2f62006f64790055
:100f1c003e3c2f0068746d006c3e0d000a00000012
:080f2c0020000000b607800060
:020000040000fa
:100f3400f03fb1000180b10006003500ee03090066
:100f440000000000403fb1000180b100fbff3d0004
:100f54001000b000203fb0000200350000800900fe
:080f640000000000000006007f
:020000040000fa
:040f6c000000000081
:020000040000fa
:0200000401f009
:04000000ffff0000fe
:020000040000fa
:0200000401f009
:04000800ffff0000f6
:020000040000fa
:0200000401f009
:04000c0001000000ef
:020000040000fa
:0200000401f009
:040010008300000069
:020000040000fa
:0200000401f009
:040014005f00000089
:020000040000fa
:0200000401f009
:04001800970000004d
:020000040000fa
:0200000401f009
:04001c00dfff000002
:00000001FF
